{
  "_format": "hh-sol-artifact-1",
  "contractName": "Lock",
  "sourceName": "contracts/Lock.sol",
  "abi": [
    {
      "inputs": [],
      "stateMutability": "nonpayable",
      "type": "constructor"
    },
    {
      "anonymous": false,
      "inputs": [
        {
          "indexed": true,
          "internalType": "address",
          "name": "owner",
          "type": "address"
        },
        {
          "indexed": true,
          "internalType": "address",
          "name": "approved",
          "type": "address"
        },
        {
          "indexed": true,
          "internalType": "uint256",
          "name": "tokenId",
          "type": "uint256"
        }
      ],
      "name": "Approval",
      "type": "event"
    },
    {
      "anonymous": false,
      "inputs": [
        {
          "indexed": true,
          "internalType": "address",
          "name": "owner",
          "type": "address"
        },
        {
          "indexed": true,
          "internalType": "address",
          "name": "operator",
          "type": "address"
        },
        {
          "indexed": false,
          "internalType": "bool",
          "name": "approved",
          "type": "bool"
        }
      ],
      "name": "ApprovalForAll",
      "type": "event"
    },
    {
      "anonymous": false,
      "inputs": [
        {
          "indexed": true,
          "internalType": "address",
          "name": "previousOwner",
          "type": "address"
        },
        {
          "indexed": true,
          "internalType": "address",
          "name": "newOwner",
          "type": "address"
        }
      ],
      "name": "OwnershipTransferred",
      "type": "event"
    },
    {
      "anonymous": false,
      "inputs": [
        {
          "indexed": true,
          "internalType": "address",
          "name": "from",
          "type": "address"
        },
        {
          "indexed": true,
          "internalType": "address",
          "name": "to",
          "type": "address"
        },
        {
          "indexed": true,
          "internalType": "uint256",
          "name": "tokenId",
          "type": "uint256"
        }
      ],
      "name": "Transfer",
      "type": "event"
    },
    {
      "inputs": [
        {
          "internalType": "address[]",
          "name": "_addresses",
          "type": "address[]"
        }
      ],
      "name": "addToWhitelist",
      "outputs": [],
      "stateMutability": "nonpayable",
      "type": "function"
    },
    {
      "inputs": [
        {
          "internalType": "address",
          "name": "to",
          "type": "address"
        },
        {
          "internalType": "uint256",
          "name": "tokenId",
          "type": "uint256"
        }
      ],
      "name": "approve",
      "outputs": [],
      "stateMutability": "nonpayable",
      "type": "function"
    },
    {
      "inputs": [
        {
          "internalType": "address",
          "name": "owner",
          "type": "address"
        }
      ],
      "name": "balanceOf",
      "outputs": [
        {
          "internalType": "uint256",
          "name": "",
          "type": "uint256"
        }
      ],
      "stateMutability": "view",
      "type": "function"
    },
    {
      "inputs": [],
      "name": "getAllToken",
      "outputs": [
        {
          "components": [
            {
              "internalType": "uint256",
              "name": "id",
              "type": "uint256"
            },
            {
              "internalType": "string",
              "name": "uri",
              "type": "string"
            },
            {
              "internalType": "string",
              "name": "space",
              "type": "string"
            }
          ],
          "internalType": "struct Lock.RenderToken[]",
          "name": "",
          "type": "tuple[]"
        }
      ],
      "stateMutability": "view",
      "type": "function"
    },
    {
      "inputs": [
        {
          "internalType": "uint256",
          "name": "tokenId",
          "type": "uint256"
        }
      ],
      "name": "getApproved",
      "outputs": [
        {
          "internalType": "address",
          "name": "",
          "type": "address"
        }
      ],
      "stateMutability": "view",
      "type": "function"
    },
    {
      "inputs": [
        {
          "internalType": "address",
          "name": "owner",
          "type": "address"
        },
        {
          "internalType": "address",
          "name": "operator",
          "type": "address"
        }
      ],
      "name": "isApprovedForAll",
      "outputs": [
        {
          "internalType": "bool",
          "name": "",
          "type": "bool"
        }
      ],
      "stateMutability": "view",
      "type": "function"
    },
    {
      "inputs": [
        {
          "internalType": "address",
          "name": "_address",
          "type": "address"
        }
      ],
      "name": "isWhitelisted",
      "outputs": [
        {
          "internalType": "bool",
          "name": "",
          "type": "bool"
        }
      ],
      "stateMutability": "view",
      "type": "function"
    },
    {
      "inputs": [
        {
          "internalType": "address",
          "name": "recipients",
          "type": "address"
        },
        {
          "internalType": "string",
          "name": "_uri",
          "type": "string"
        }
      ],
      "name": "mint",
      "outputs": [
        {
          "internalType": "uint256",
          "name": "",
          "type": "uint256"
        }
      ],
      "stateMutability": "nonpayable",
      "type": "function"
    },
    {
      "inputs": [],
      "name": "name",
      "outputs": [
        {
          "internalType": "string",
          "name": "",
          "type": "string"
        }
      ],
      "stateMutability": "view",
      "type": "function"
    },
    {
      "inputs": [],
      "name": "owner",
      "outputs": [
        {
          "internalType": "address",
          "name": "",
          "type": "address"
        }
      ],
      "stateMutability": "view",
      "type": "function"
    },
    {
      "inputs": [
        {
          "internalType": "uint256",
          "name": "tokenId",
          "type": "uint256"
        }
      ],
      "name": "ownerOf",
      "outputs": [
        {
          "internalType": "address",
          "name": "",
          "type": "address"
        }
      ],
      "stateMutability": "view",
      "type": "function"
    },
    {
      "inputs": [
        {
          "internalType": "address[]",
          "name": "_addresses",
          "type": "address[]"
        }
      ],
      "name": "removeFromWhitelist",
      "outputs": [],
      "stateMutability": "nonpayable",
      "type": "function"
    },
    {
      "inputs": [],
      "name": "renounceOwnership",
      "outputs": [],
      "stateMutability": "nonpayable",
      "type": "function"
    },
    {
      "inputs": [
        {
          "internalType": "address",
          "name": "from",
          "type": "address"
        },
        {
          "internalType": "address",
          "name": "to",
          "type": "address"
        },
        {
          "internalType": "uint256",
          "name": "tokenId",
          "type": "uint256"
        }
      ],
      "name": "safeTransferFrom",
      "outputs": [],
      "stateMutability": "nonpayable",
      "type": "function"
    },
    {
      "inputs": [
        {
          "internalType": "address",
          "name": "from",
          "type": "address"
        },
        {
          "internalType": "address",
          "name": "to",
          "type": "address"
        },
        {
          "internalType": "uint256",
          "name": "tokenId",
          "type": "uint256"
        },
        {
          "internalType": "bytes",
          "name": "data",
          "type": "bytes"
        }
      ],
      "name": "safeTransferFrom",
      "outputs": [],
      "stateMutability": "nonpayable",
      "type": "function"
    },
    {
      "inputs": [
        {
          "internalType": "address",
          "name": "operator",
          "type": "address"
        },
        {
          "internalType": "bool",
          "name": "approved",
          "type": "bool"
        }
      ],
      "name": "setApprovalForAll",
      "outputs": [],
      "stateMutability": "nonpayable",
      "type": "function"
    },
    {
      "inputs": [
        {
          "internalType": "bytes4",
          "name": "interfaceId",
          "type": "bytes4"
        }
      ],
      "name": "supportsInterface",
      "outputs": [
        {
          "internalType": "bool",
          "name": "",
          "type": "bool"
        }
      ],
      "stateMutability": "view",
      "type": "function"
    },
    {
      "inputs": [],
      "name": "symbol",
      "outputs": [
        {
          "internalType": "string",
          "name": "",
          "type": "string"
        }
      ],
      "stateMutability": "view",
      "type": "function"
    },
    {
      "inputs": [
        {
          "internalType": "uint256",
          "name": "tokenId",
          "type": "uint256"
        }
      ],
      "name": "tokenURI",
      "outputs": [
        {
          "internalType": "string",
          "name": "",
          "type": "string"
        }
      ],
      "stateMutability": "view",
      "type": "function"
    },
    {
      "inputs": [
        {
          "internalType": "address",
          "name": "from",
          "type": "address"
        },
        {
          "internalType": "address",
          "name": "to",
          "type": "address"
        },
        {
          "internalType": "uint256",
          "name": "tokenId",
          "type": "uint256"
        }
      ],
      "name": "transferFrom",
      "outputs": [],
      "stateMutability": "nonpayable",
      "type": "function"
    },
    {
      "inputs": [
        {
          "internalType": "address",
          "name": "newOwner",
          "type": "address"
        }
      ],
      "name": "transferOwnership",
      "outputs": [],
      "stateMutability": "nonpayable",
      "type": "function"
    }
  ],
  "bytecode": "0x60806040523480156200001157600080fd5b506040518060400160405280601081526020017f50726f66696c65496d6167654e667473000000000000000000000000000000008152506040518060400160405280600381526020017f50494e000000000000000000000000000000000000000000000000000000000081525081600090816200008f919062000412565b508060019081620000a1919062000412565b505050620000c4620000b8620000ca60201b60201c565b620000d260201b60201c565b620004f9565b600033905090565b6000600660009054906101000a900473ffffffffffffffffffffffffffffffffffffffff16905081600660006101000a81548173ffffffffffffffffffffffffffffffffffffffff021916908373ffffffffffffffffffffffffffffffffffffffff1602179055508173ffffffffffffffffffffffffffffffffffffffff168173ffffffffffffffffffffffffffffffffffffffff167f8be0079c531659141344cd1fd0a4f28419497f9722a3daafe3b4186f6b6457e060405160405180910390a35050565b600081519050919050565b7f4e487b7100000000000000000000000000000000000000000000000000000000600052604160045260246000fd5b7f4e487b7100000000000000000000000000000000000000000000000000000000600052602260045260246000fd5b600060028204905060018216806200021a57607f821691505b60208210810362000230576200022f620001d2565b5b50919050565b60008190508160005260206000209050919050565b60006020601f8301049050919050565b600082821b905092915050565b6000600883026200029a7fffffffffffffffffffffffffffffffffffffffffffffffffffffffffffffffff826200025b565b620002a686836200025b565b95508019841693508086168417925050509392505050565b6000819050919050565b6000819050919050565b6000620002f3620002ed620002e784620002be565b620002c8565b620002be565b9050919050565b6000819050919050565b6200030f83620002d2565b620003276200031e82620002fa565b84845462000268565b825550505050565b600090565b6200033e6200032f565b6200034b81848462000304565b505050565b5b8181101562000373576200036760008262000334565b60018101905062000351565b5050565b601f821115620003c2576200038c8162000236565b62000397846200024b565b81016020851015620003a7578190505b620003bf620003b6856200024b565b83018262000350565b50505b505050565b600082821c905092915050565b6000620003e760001984600802620003c7565b1980831691505092915050565b6000620004028383620003d4565b9150826002028217905092915050565b6200041d8262000198565b67ffffffffffffffff811115620004395762000438620001a3565b5b62000445825462000201565b6200045282828562000377565b600060209050601f8311600181146200048a576000841562000475578287015190505b620004818582620003f4565b865550620004f1565b601f1984166200049a8662000236565b60005b82811015620004c4578489015182556001820191506020850194506020810190506200049d565b86831015620004e45784890151620004e0601f891682620003d4565b8355505b6001600288020188555050505b505050505050565b61317080620005096000396000f3fe608060405234801561001057600080fd5b50600436106101375760003560e01c8063715018a6116100b8578063a22cb4651161007c578063a22cb4651461033a578063b88d4fde14610356578063c87b56dd14610372578063d0def521146103a2578063e985e9c5146103d2578063f2fde38b1461040257610137565b8063715018a6146102ba5780637f649783146102c457806385e3c1d4146102e05780638da5cb5b146102fe57806395d89b411461031c57610137565b80633af32abf116100ff5780633af32abf146101f257806342842e0e14610222578063548db1741461023e5780636352211e1461025a57806370a082311461028a57610137565b806301ffc9a71461013c57806306fdde031461016c578063081812fc1461018a578063095ea7b3146101ba57806323b872dd146101d6575b600080fd5b61015660048036038101906101519190611c5f565b61041e565b6040516101639190611ca7565b60405180910390f35b610174610500565b6040516101819190611d52565b60405180910390f35b6101a4600480360381019061019f9190611daa565b610592565b6040516101b19190611e18565b60405180910390f35b6101d460048036038101906101cf9190611e5f565b6105d8565b005b6101f060048036038101906101eb9190611e9f565b6106ef565b005b61020c60048036038101906102079190611ef2565b61074f565b6040516102199190611ca7565b60405180910390f35b61023c60048036038101906102379190611e9f565b6107a5565b005b61025860048036038101906102539190612067565b6107c5565b005b610274600480360381019061026f9190611daa565b610862565b6040516102819190611e18565b60405180910390f35b6102a4600480360381019061029f9190611ef2565b6108e8565b6040516102b191906120bf565b60405180910390f35b6102c261099f565b005b6102de60048036038101906102d99190612067565b6109b3565b005b6102e8610a50565b6040516102f5919061224c565b60405180910390f35b610306610b6a565b6040516103139190611e18565b60405180910390f35b610324610b94565b6040516103319190611d52565b60405180910390f35b610354600480360381019061034f919061229a565b610c26565b005b610370600480360381019061036b919061238f565b610c3c565b005b61038c60048036038101906103879190611daa565b610c9e565b6040516103999190611d52565b60405180910390f35b6103bc60048036038101906103b791906124b3565b610d91565b6040516103c991906120bf565b60405180910390f35b6103ec60048036038101906103e7919061250f565b610e11565b6040516103f99190611ca7565b60405180910390f35b61041c60048036038101906104179190611ef2565b610ea5565b005b60007f80ac58cd000000000000000000000000000000000000000000000000000000007bffffffffffffffffffffffffffffffffffffffffffffffffffffffff1916827bffffffffffffffffffffffffffffffffffffffffffffffffffffffff191614806104e957507f5b5e139f000000000000000000000000000000000000000000000000000000007bffffffffffffffffffffffffffffffffffffffffffffffffffffffff1916827bffffffffffffffffffffffffffffffffffffffffffffffffffffffff1916145b806104f957506104f882610f28565b5b9050919050565b60606000805461050f9061257e565b80601f016020809104026020016040519081016040528092919081815260200182805461053b9061257e565b80156105885780601f1061055d57610100808354040283529160200191610588565b820191906000526020600020905b81548152906001019060200180831161056b57829003601f168201915b5050505050905090565b600061059d82610f92565b6004600083815260200190815260200160002060009054906101000a900473ffffffffffffffffffffffffffffffffffffffff169050919050565b60006105e382610862565b90508073ffffffffffffffffffffffffffffffffffffffff168373ffffffffffffffffffffffffffffffffffffffff1603610653576040517f08c379a000000000000000000000000000000000000000000000000000000000815260040161064a90612621565b60405180910390fd5b8073ffffffffffffffffffffffffffffffffffffffff16610672610fdd565b73ffffffffffffffffffffffffffffffffffffffff1614806106a157506106a08161069b610fdd565b610e11565b5b6106e0576040517f08c379a00000000000000000000000000000000000000000000000000000000081526004016106d7906126b3565b60405180910390fd5b6106ea8383610fe5565b505050565b6107006106fa610fdd565b8261109e565b61073f576040517f08c379a000000000000000000000000000000000000000000000000000000000815260040161073690612745565b60405180910390fd5b61074a838383611133565b505050565b6000600960008373ffffffffffffffffffffffffffffffffffffffff1673ffffffffffffffffffffffffffffffffffffffff16815260200190815260200160002060009054906101000a900460ff169050919050565b6107c083838360405180602001604052806000815250610c3c565b505050565b6107cd61142c565b60005b815181101561085e576000600960008484815181106107f2576107f1612765565b5b602002602001015173ffffffffffffffffffffffffffffffffffffffff1673ffffffffffffffffffffffffffffffffffffffff16815260200190815260200160002060006101000a81548160ff0219169083151502179055508080610856906127c3565b9150506107d0565b5050565b60008061086e836114aa565b9050600073ffffffffffffffffffffffffffffffffffffffff168173ffffffffffffffffffffffffffffffffffffffff16036108df576040517f08c379a00000000000000000000000000000000000000000000000000000000081526004016108d690612857565b60405180910390fd5b80915050919050565b60008073ffffffffffffffffffffffffffffffffffffffff168273ffffffffffffffffffffffffffffffffffffffff1603610958576040517f08c379a000000000000000000000000000000000000000000000000000000000815260040161094f906128e9565b60405180910390fd5b600360008373ffffffffffffffffffffffffffffffffffffffff1673ffffffffffffffffffffffffffffffffffffffff168152602001908152602001600020549050919050565b6109a761142c565b6109b160006114e7565b565b6109bb61142c565b60005b8151811015610a4c576001600960008484815181106109e0576109df612765565b5b602002602001015173ffffffffffffffffffffffffffffffffffffffff1673ffffffffffffffffffffffffffffffffffffffff16815260200190815260200160002060006101000a81548160ff0219169083151502179055508080610a44906127c3565b9150506109be565b5050565b60606000610a5e60076115ad565b905060008167ffffffffffffffff811115610a7c57610a7b611f24565b5b604051908082528060200260200182016040528015610ab557816020015b610aa2611bd2565b815260200190600190039081610a9a5790505b50905060005b82811015610b6157610acc816115bb565b15610b4e576000610adc82610c9e565b905060405180606001604052808381526020018281526020016040518060400160405280600181526020017f2000000000000000000000000000000000000000000000000000000000000000815250815250838381518110610b4157610b40612765565b5b6020026020010181905250505b8080610b59906127c3565b915050610abb565b50809250505090565b6000600660009054906101000a900473ffffffffffffffffffffffffffffffffffffffff16905090565b606060018054610ba39061257e565b80601f0160208091040260200160405190810160405280929190818152602001828054610bcf9061257e565b8015610c1c5780601f10610bf157610100808354040283529160200191610c1c565b820191906000526020600020905b815481529060010190602001808311610bff57829003601f168201915b5050505050905090565b610c38610c31610fdd565b83836115fc565b5050565b610c4d610c47610fdd565b8361109e565b610c8c576040517f08c379a0000000000000000000000000000000000000000000000000000000008152600401610c8390612745565b60405180910390fd5b610c9884848484611768565b50505050565b6060610ca9826115bb565b610ce8576040517f08c379a0000000000000000000000000000000000000000000000000000000008152600401610cdf90612955565b60405180910390fd5b6000600860008481526020019081526020016000208054610d089061257e565b80601f0160208091040260200160405190810160405280929190818152602001828054610d349061257e565b8015610d815780601f10610d5657610100808354040283529160200191610d81565b820191906000526020600020905b815481529060010190602001808311610d6457829003601f168201915b5050505050905080915050919050565b6000610d9c3361074f565b610ddb576040517f08c379a0000000000000000000000000000000000000000000000000000000008152600401610dd2906129c1565b60405180910390fd5b6000610de760076115ad565b9050610df384826117c4565b610dfd81846119e1565b610e076007611a06565b8091505092915050565b6000600560008473ffffffffffffffffffffffffffffffffffffffff1673ffffffffffffffffffffffffffffffffffffffff16815260200190815260200160002060008373ffffffffffffffffffffffffffffffffffffffff1673ffffffffffffffffffffffffffffffffffffffff16815260200190815260200160002060009054906101000a900460ff16905092915050565b610ead61142c565b600073ffffffffffffffffffffffffffffffffffffffff168173ffffffffffffffffffffffffffffffffffffffff1603610f1c576040517f08c379a0000000000000000000000000000000000000000000000000000000008152600401610f1390612a53565b60405180910390fd5b610f25816114e7565b50565b60007f01ffc9a7000000000000000000000000000000000000000000000000000000007bffffffffffffffffffffffffffffffffffffffffffffffffffffffff1916827bffffffffffffffffffffffffffffffffffffffffffffffffffffffff1916149050919050565b610f9b816115bb565b610fda576040517f08c379a0000000000000000000000000000000000000000000000000000000008152600401610fd190612857565b60405180910390fd5b50565b600033905090565b816004600083815260200190815260200160002060006101000a81548173ffffffffffffffffffffffffffffffffffffffff021916908373ffffffffffffffffffffffffffffffffffffffff160217905550808273ffffffffffffffffffffffffffffffffffffffff1661105883610862565b73ffffffffffffffffffffffffffffffffffffffff167f8c5be1e5ebec7d5bd14f71427d1e84f3dd0314c0f7b2291e5b200ac8c7c3b92560405160405180910390a45050565b6000806110aa83610862565b90508073ffffffffffffffffffffffffffffffffffffffff168473ffffffffffffffffffffffffffffffffffffffff1614806110ec57506110eb8185610e11565b5b8061112a57508373ffffffffffffffffffffffffffffffffffffffff1661111284610592565b73ffffffffffffffffffffffffffffffffffffffff16145b91505092915050565b8273ffffffffffffffffffffffffffffffffffffffff1661115382610862565b73ffffffffffffffffffffffffffffffffffffffff16146111a9576040517f08c379a00000000000000000000000000000000000000000000000000000000081526004016111a090612ae5565b60405180910390fd5b600073ffffffffffffffffffffffffffffffffffffffff168273ffffffffffffffffffffffffffffffffffffffff1603611218576040517f08c379a000000000000000000000000000000000000000000000000000000000815260040161120f90612b77565b60405180910390fd5b6112258383836001611a1c565b8273ffffffffffffffffffffffffffffffffffffffff1661124582610862565b73ffffffffffffffffffffffffffffffffffffffff161461129b576040517f08c379a000000000000000000000000000000000000000000000000000000000815260040161129290612ae5565b60405180910390fd5b6004600082815260200190815260200160002060006101000a81549073ffffffffffffffffffffffffffffffffffffffff02191690556001600360008573ffffffffffffffffffffffffffffffffffffffff1673ffffffffffffffffffffffffffffffffffffffff168152602001908152602001600020600082825403925050819055506001600360008473ffffffffffffffffffffffffffffffffffffffff1673ffffffffffffffffffffffffffffffffffffffff16815260200190815260200160002060008282540192505081905550816002600083815260200190815260200160002060006101000a81548173ffffffffffffffffffffffffffffffffffffffff021916908373ffffffffffffffffffffffffffffffffffffffff160217905550808273ffffffffffffffffffffffffffffffffffffffff168473ffffffffffffffffffffffffffffffffffffffff167fddf252ad1be2c89b69c2b068fc378daa952ba7f163c4a11628f55a4df523b3ef60405160405180910390a46114278383836001611a22565b505050565b611434610fdd565b73ffffffffffffffffffffffffffffffffffffffff16611452610b6a565b73ffffffffffffffffffffffffffffffffffffffff16146114a8576040517f08c379a000000000000000000000000000000000000000000000000000000000815260040161149f90612be3565b60405180910390fd5b565b60006002600083815260200190815260200160002060009054906101000a900473ffffffffffffffffffffffffffffffffffffffff169050919050565b6000600660009054906101000a900473ffffffffffffffffffffffffffffffffffffffff16905081600660006101000a81548173ffffffffffffffffffffffffffffffffffffffff021916908373ffffffffffffffffffffffffffffffffffffffff1602179055508173ffffffffffffffffffffffffffffffffffffffff168173ffffffffffffffffffffffffffffffffffffffff167f8be0079c531659141344cd1fd0a4f28419497f9722a3daafe3b4186f6b6457e060405160405180910390a35050565b600081600001549050919050565b60008073ffffffffffffffffffffffffffffffffffffffff166115dd836114aa565b73ffffffffffffffffffffffffffffffffffffffff1614159050919050565b8173ffffffffffffffffffffffffffffffffffffffff168373ffffffffffffffffffffffffffffffffffffffff160361166a576040517f08c379a000000000000000000000000000000000000000000000000000000000815260040161166190612c4f565b60405180910390fd5b80600560008573ffffffffffffffffffffffffffffffffffffffff1673ffffffffffffffffffffffffffffffffffffffff16815260200190815260200160002060008473ffffffffffffffffffffffffffffffffffffffff1673ffffffffffffffffffffffffffffffffffffffff16815260200190815260200160002060006101000a81548160ff0219169083151502179055508173ffffffffffffffffffffffffffffffffffffffff168373ffffffffffffffffffffffffffffffffffffffff167f17307eab39ab6107e8899845ad3d59bd9653f200f220920489ca2b5937696c318360405161175b9190611ca7565b60405180910390a3505050565b611773848484611133565b61177f84848484611a28565b6117be576040517f08c379a00000000000000000000000000000000000000000000000000000000081526004016117b590612ce1565b60405180910390fd5b50505050565b600073ffffffffffffffffffffffffffffffffffffffff168273ffffffffffffffffffffffffffffffffffffffff1603611833576040517f08c379a000000000000000000000000000000000000000000000000000000000815260040161182a90612d4d565b60405180910390fd5b61183c816115bb565b1561187c576040517f08c379a000000000000000000000000000000000000000000000000000000000815260040161187390612db9565b60405180910390fd5b61188a600083836001611a1c565b611893816115bb565b156118d3576040517f08c379a00000000000000000000000000000000000000000000000000000000081526004016118ca90612db9565b60405180910390fd5b6001600360008473ffffffffffffffffffffffffffffffffffffffff1673ffffffffffffffffffffffffffffffffffffffff16815260200190815260200160002060008282540192505081905550816002600083815260200190815260200160002060006101000a81548173ffffffffffffffffffffffffffffffffffffffff021916908373ffffffffffffffffffffffffffffffffffffffff160217905550808273ffffffffffffffffffffffffffffffffffffffff16600073ffffffffffffffffffffffffffffffffffffffff167fddf252ad1be2c89b69c2b068fc378daa952ba7f163c4a11628f55a4df523b3ef60405160405180910390a46119dd600083836001611a22565b5050565b80600860008481526020019081526020016000209081611a019190612f85565b505050565b6001816000016000828254019250508190555050565b50505050565b50505050565b6000611a498473ffffffffffffffffffffffffffffffffffffffff16611baf565b15611ba2578373ffffffffffffffffffffffffffffffffffffffff1663150b7a02611a72610fdd565b8786866040518563ffffffff1660e01b8152600401611a9494939291906130ac565b6020604051808303816000875af1925050508015611ad057506040513d601f19601f82011682018060405250810190611acd919061310d565b60015b611b52573d8060008114611b00576040519150601f19603f3d011682016040523d82523d6000602084013e611b05565b606091505b506000815103611b4a576040517f08c379a0000000000000000000000000000000000000000000000000000000008152600401611b4190612ce1565b60405180910390fd5b805181602001fd5b63150b7a0260e01b7bffffffffffffffffffffffffffffffffffffffffffffffffffffffff1916817bffffffffffffffffffffffffffffffffffffffffffffffffffffffff191614915050611ba7565b600190505b949350505050565b6000808273ffffffffffffffffffffffffffffffffffffffff163b119050919050565b60405180606001604052806000815260200160608152602001606081525090565b6000604051905090565b600080fd5b600080fd5b60007fffffffff0000000000000000000000000000000000000000000000000000000082169050919050565b611c3c81611c07565b8114611c4757600080fd5b50565b600081359050611c5981611c33565b92915050565b600060208284031215611c7557611c74611bfd565b5b6000611c8384828501611c4a565b91505092915050565b60008115159050919050565b611ca181611c8c565b82525050565b6000602082019050611cbc6000830184611c98565b92915050565b600081519050919050565b600082825260208201905092915050565b60005b83811015611cfc578082015181840152602081019050611ce1565b60008484015250505050565b6000601f19601f8301169050919050565b6000611d2482611cc2565b611d2e8185611ccd565b9350611d3e818560208601611cde565b611d4781611d08565b840191505092915050565b60006020820190508181036000830152611d6c8184611d19565b905092915050565b6000819050919050565b611d8781611d74565b8114611d9257600080fd5b50565b600081359050611da481611d7e565b92915050565b600060208284031215611dc057611dbf611bfd565b5b6000611dce84828501611d95565b91505092915050565b600073ffffffffffffffffffffffffffffffffffffffff82169050919050565b6000611e0282611dd7565b9050919050565b611e1281611df7565b82525050565b6000602082019050611e2d6000830184611e09565b92915050565b611e3c81611df7565b8114611e4757600080fd5b50565b600081359050611e5981611e33565b92915050565b60008060408385031215611e7657611e75611bfd565b5b6000611e8485828601611e4a565b9250506020611e9585828601611d95565b9150509250929050565b600080600060608486031215611eb857611eb7611bfd565b5b6000611ec686828701611e4a565b9350506020611ed786828701611e4a565b9250506040611ee886828701611d95565b9150509250925092565b600060208284031215611f0857611f07611bfd565b5b6000611f1684828501611e4a565b91505092915050565b600080fd5b7f4e487b7100000000000000000000000000000000000000000000000000000000600052604160045260246000fd5b611f5c82611d08565b810181811067ffffffffffffffff82111715611f7b57611f7a611f24565b5b80604052505050565b6000611f8e611bf3565b9050611f9a8282611f53565b919050565b600067ffffffffffffffff821115611fba57611fb9611f24565b5b602082029050602081019050919050565b600080fd5b6000611fe3611fde84611f9f565b611f84565b9050808382526020820190506020840283018581111561200657612005611fcb565b5b835b8181101561202f578061201b8882611e4a565b845260208401935050602081019050612008565b5050509392505050565b600082601f83011261204e5761204d611f1f565b5b813561205e848260208601611fd0565b91505092915050565b60006020828403121561207d5761207c611bfd565b5b600082013567ffffffffffffffff81111561209b5761209a611c02565b5b6120a784828501612039565b91505092915050565b6120b981611d74565b82525050565b60006020820190506120d460008301846120b0565b92915050565b600081519050919050565b600082825260208201905092915050565b6000819050602082019050919050565b61210f81611d74565b82525050565b600082825260208201905092915050565b600061213182611cc2565b61213b8185612115565b935061214b818560208601611cde565b61215481611d08565b840191505092915050565b60006060830160008301516121776000860182612106565b506020830151848203602086015261218f8282612126565b915050604083015184820360408601526121a98282612126565b9150508091505092915050565b60006121c2838361215f565b905092915050565b6000602082019050919050565b60006121e2826120da565b6121ec81856120e5565b9350836020820285016121fe856120f6565b8060005b8581101561223a578484038952815161221b85826121b6565b9450612226836121ca565b925060208a01995050600181019050612202565b50829750879550505050505092915050565b6000602082019050818103600083015261226681846121d7565b905092915050565b61227781611c8c565b811461228257600080fd5b50565b6000813590506122948161226e565b92915050565b600080604083850312156122b1576122b0611bfd565b5b60006122bf85828601611e4a565b92505060206122d085828601612285565b9150509250929050565b600080fd5b600067ffffffffffffffff8211156122fa576122f9611f24565b5b61230382611d08565b9050602081019050919050565b82818337600083830152505050565b600061233261232d846122df565b611f84565b90508281526020810184848401111561234e5761234d6122da565b5b612359848285612310565b509392505050565b600082601f83011261237657612375611f1f565b5b813561238684826020860161231f565b91505092915050565b600080600080608085870312156123a9576123a8611bfd565b5b60006123b787828801611e4a565b94505060206123c887828801611e4a565b93505060406123d987828801611d95565b925050606085013567ffffffffffffffff8111156123fa576123f9611c02565b5b61240687828801612361565b91505092959194509250565b600067ffffffffffffffff82111561242d5761242c611f24565b5b61243682611d08565b9050602081019050919050565b600061245661245184612412565b611f84565b905082815260208101848484011115612472576124716122da565b5b61247d848285612310565b509392505050565b600082601f83011261249a57612499611f1f565b5b81356124aa848260208601612443565b91505092915050565b600080604083850312156124ca576124c9611bfd565b5b60006124d885828601611e4a565b925050602083013567ffffffffffffffff8111156124f9576124f8611c02565b5b61250585828601612485565b9150509250929050565b6000806040838503121561252657612525611bfd565b5b600061253485828601611e4a565b925050602061254585828601611e4a565b9150509250929050565b7f4e487b7100000000000000000000000000000000000000000000000000000000600052602260045260246000fd5b6000600282049050600182168061259657607f821691505b6020821081036125a9576125a861254f565b5b50919050565b7f4552433732313a20617070726f76616c20746f2063757272656e74206f776e6560008201527f7200000000000000000000000000000000000000000000000000000000000000602082015250565b600061260b602183611ccd565b9150612616826125af565b604082019050919050565b6000602082019050818103600083015261263a816125fe565b9050919050565b7f4552433732313a20617070726f76652063616c6c6572206973206e6f7420746f60008201527f6b656e206f776e6572206f7220617070726f76656420666f7220616c6c000000602082015250565b600061269d603d83611ccd565b91506126a882612641565b604082019050919050565b600060208201905081810360008301526126cc81612690565b9050919050565b7f4552433732313a2063616c6c6572206973206e6f7420746f6b656e206f776e6560008201527f72206f7220617070726f76656400000000000000000000000000000000000000602082015250565b600061272f602d83611ccd565b915061273a826126d3565b604082019050919050565b6000602082019050818103600083015261275e81612722565b9050919050565b7f4e487b7100000000000000000000000000000000000000000000000000000000600052603260045260246000fd5b7f4e487b7100000000000000000000000000000000000000000000000000000000600052601160045260246000fd5b60006127ce82611d74565b91507fffffffffffffffffffffffffffffffffffffffffffffffffffffffffffffffff8203612800576127ff612794565b5b600182019050919050565b7f4552433732313a20696e76616c696420746f6b656e2049440000000000000000600082015250565b6000612841601883611ccd565b915061284c8261280b565b602082019050919050565b6000602082019050818103600083015261287081612834565b9050919050565b7f4552433732313a2061646472657373207a65726f206973206e6f74206120766160008201527f6c6964206f776e65720000000000000000000000000000000000000000000000602082015250565b60006128d3602983611ccd565b91506128de82612877565b604082019050919050565b60006020820190508181036000830152612902816128c6565b9050919050565b7f55524920646f6573206e6f74206578697374206f6e2074686174204944000000600082015250565b600061293f601d83611ccd565b915061294a82612909565b602082019050919050565b6000602082019050818103600083015261296e81612932565b9050919050565b7f53656e646572206973206e6f742077686974656c697374656400000000000000600082015250565b60006129ab601983611ccd565b91506129b682612975565b602082019050919050565b600060208201905081810360008301526129da8161299e565b9050919050565b7f4f776e61626c653a206e6577206f776e657220697320746865207a65726f206160008201527f6464726573730000000000000000000000000000000000000000000000000000602082015250565b6000612a3d602683611ccd565b9150612a48826129e1565b604082019050919050565b60006020820190508181036000830152612a6c81612a30565b9050919050565b7f4552433732313a207472616e736665722066726f6d20696e636f72726563742060008201527f6f776e6572000000000000000000000000000000000000000000000000000000602082015250565b6000612acf602583611ccd565b9150612ada82612a73565b604082019050919050565b60006020820190508181036000830152612afe81612ac2565b9050919050565b7f4552433732313a207472616e7366657220746f20746865207a65726f2061646460008201527f7265737300000000000000000000000000000000000000000000000000000000602082015250565b6000612b61602483611ccd565b9150612b6c82612b05565b604082019050919050565b60006020820190508181036000830152612b9081612b54565b9050919050565b7f4f776e61626c653a2063616c6c6572206973206e6f7420746865206f776e6572600082015250565b6000612bcd602083611ccd565b9150612bd882612b97565b602082019050919050565b60006020820190508181036000830152612bfc81612bc0565b9050919050565b7f4552433732313a20617070726f766520746f2063616c6c657200000000000000600082015250565b6000612c39601983611ccd565b9150612c4482612c03565b602082019050919050565b60006020820190508181036000830152612c6881612c2c565b9050919050565b7f4552433732313a207472616e7366657220746f206e6f6e20455243373231526560008201527f63656976657220696d706c656d656e7465720000000000000000000000000000602082015250565b6000612ccb603283611ccd565b9150612cd682612c6f565b604082019050919050565b60006020820190508181036000830152612cfa81612cbe565b9050919050565b7f4552433732313a206d696e7420746f20746865207a65726f2061646472657373600082015250565b6000612d37602083611ccd565b9150612d4282612d01565b602082019050919050565b60006020820190508181036000830152612d6681612d2a565b9050919050565b7f4552433732313a20746f6b656e20616c7265616479206d696e74656400000000600082015250565b6000612da3601c83611ccd565b9150612dae82612d6d565b602082019050919050565b60006020820190508181036000830152612dd281612d96565b9050919050565b60008190508160005260206000209050919050565b60006020601f8301049050919050565b600082821b905092915050565b600060088302612e3b7fffffffffffffffffffffffffffffffffffffffffffffffffffffffffffffffff82612dfe565b612e458683612dfe565b95508019841693508086168417925050509392505050565b6000819050919050565b6000612e82612e7d612e7884611d74565b612e5d565b611d74565b9050919050565b6000819050919050565b612e9c83612e67565b612eb0612ea882612e89565b848454612e0b565b825550505050565b600090565b612ec5612eb8565b612ed0818484612e93565b505050565b5b81811015612ef457612ee9600082612ebd565b600181019050612ed6565b5050565b601f821115612f3957612f0a81612dd9565b612f1384612dee565b81016020851015612f22578190505b612f36612f2e85612dee565b830182612ed5565b50505b505050565b600082821c905092915050565b6000612f5c60001984600802612f3e565b1980831691505092915050565b6000612f758383612f4b565b9150826002028217905092915050565b612f8e82611cc2565b67ffffffffffffffff811115612fa757612fa6611f24565b5b612fb1825461257e565b612fbc828285612ef8565b600060209050601f831160018114612fef5760008415612fdd578287015190505b612fe78582612f69565b86555061304f565b601f198416612ffd86612dd9565b60005b8281101561302557848901518255600182019150602085019450602081019050613000565b86831015613042578489015161303e601f891682612f4b565b8355505b6001600288020188555050505b505050505050565b600081519050919050565b600082825260208201905092915050565b600061307e82613057565b6130888185613062565b9350613098818560208601611cde565b6130a181611d08565b840191505092915050565b60006080820190506130c16000830187611e09565b6130ce6020830186611e09565b6130db60408301856120b0565b81810360608301526130ed8184613073565b905095945050505050565b60008151905061310781611c33565b92915050565b60006020828403121561312357613122611bfd565b5b6000613131848285016130f8565b9150509291505056fea26469706673582212209d3bc56a58e6800540bbad0192e55f3c7cb6d7762f49931f616feb4f0b6ee12364736f6c63430008110033",
  "linkReferences": {},
  "deployedLinkReferences": {}
}